:1000000012C019C018C017C016C015C014C013C044
:1000100012C011C010C00FC00EC00DC00CC00BC06C
:100020000AC009C008C011241FBECFE5D4E0DEBF5E
:10003000CDBF02D026C0E4CF87B3816087BB84B335
:10004000836084BB88B3816088BB85B3836085BBD4
:100050002FEF84E39CE0215080409040E1F700C006
:10006000000088B38E7F88BB85B38C7F85BB2FEF64
:1000700084E39CE0215080409040E1F700C0000004
:06008000E1CFF894FFCF70
:00000001FF
